:0A0F280000010202030304040505A2
:10033C00E4F513F512F511F510C203C200C202C2A6
:10034C0001120F497E097F008E238F24752B0975AE
:10035C002C1275210975221C752909752A4A752DCF
:10036C0009752E78EE54C0700302044175140075A3
:10037C0015808E168F17C3749A9FFF74099ECF2415
:10038C0002CF3400FEE48F0F8E0EF50DF50CF50B3D
:10039C00F50AF509F508AF0FAE0EAD0DAC0CAB0BB5
:1003AC00AA0AA909A808C3120D245037E517250B72
:1003BC00F582E516350AF583E0FFE515250BF58288
:1003CC00E514350AF583EFF0E4FAF9F8E50B2401AE
:1003DC00F50BEA350AF50AE93509F509E83508F5AA
:1003EC000880B385142385152474002480FF7409B8
:1003FC0034FFFEC3E52C9FF52CE52B9EF52BC3E5B6
:10040C00269FF526E5259EF525C3E5289FF528E5CD
:10041C00279EF527C3E5229FF522E5219EF521C3F2
:10042C00E52A9FF52AE5299EF529C3E52E9FF52E91
:10043C00E52D9EF52DD2E843D82090E668E04409DE
:10044C00F090E65CE0443DF0D2AF90E680E020E135
:10045C0005D205120D9190E680E054F7F0538EF81A
:10046C00C2031204A8300105120080C2013003F24D
:10047C00120F5050EDC203120E3D20001690E68272
:10048C00E030E704E020E1EF90E682E030E604E0C3
:0B049C0020E0E4120DC0120F5280C7D8
:0104A7002232
:0B0F1D0090E50DE030E402C322D32277
:1000800090E6B9E0700302016B14700302021424BD
:10009000FE70030202AD24FB7003020165147003BD
:1000A00002015F147003020153147003020159240A
:1000B000056003020328120F54400302033490E644
:1000C000BBE024FE603B14605624FD6016146040C3
:1000D00024067075E52390E6B3F0E52490E6B4F0CD
:1000E000020334120F1D500FE52B90E6B3F0E52C00
:1000F00090E6B4F002033490E6A0E04401F002037D
:1001000034E52590E6B3F0E52690E6B4F00203343A
:10011000E52790E6B3F0E52890E6B4F002033490CA
:10012000E6BAE0FF120DECAA06A9077B01EA494BEB
:10013000600DEE90E6B3F0EF90E6B4F00203349079
:10014000E6A0E04401F002033490E6A0E04401F0B0
:10015000020334120EE2020334120F3A0203341285
:100160000F32020334120ED0020334120F56400332
:1001700002033490E6B8E0247F602B14603C240234
:10018000600302020AA200E433FF25E0FFA202E4BA
:10019000334F90E740F0E4A3F090E68AF090E68BCE
:1001A0007402F0020334E490E740F0A3F090E68A92
:1001B000F090E68B7402F002033490E6BCE0547ECB
:1001C000FF7E00E0D3948040067C007D0180047CAB
:1001D000007D00EC4EFEED4F2428F582740F3EF5B5
:1001E00083E493FF3395E0FEEF24A1FFEE34E68F26
:1001F00082F583E0540190E740F0E4A3F090E68AB2
:10020000F090E68B7402F002033490E6A0E0440123
:10021000F0020334120F58400302033490E6B8E0B2
:1002200024FE601D2402600302033490E6BAE0B4A9
:100230000105C20002033490E6A0E04401F002038D
:100240003490E6BAE0705990E6BCE0547EFF7E0040
:10025000E0D3948040067C007D0180047C007D001A
:10026000EC4EFEED4F2428F582740F3EF583E493A7
:10027000FF3395E0FEEF24A1FFEE34E68F82F58395
:10028000E054FEF090E6BCE05480FF131313541FBB
:10029000FFE0540F2F90E683F0E04420F002033497
:1002A00090E6A0E04401F0020334020334120F5A36
:1002B000400302033490E6B8E024FE602324027079
:1002C0005E90E6BAE0B40104D200806890E6BAE03D
:1002D000B40204805F805D90E6A0E04401F08054A9
:1002E00090E6BCE0547EFF7E00E0D3948040067C24
:1002F000007D0180047C007D00EC4EFEED4F242843
:10030000F582740F3EF583E493FF3395E0FEEF240E
:10031000A1FFEE34E68F82F583E04401F080159072
:10032000E6A0E04401F0800C120F5C500790E6A0BC
:0B033000E04401F090E6A0E04480F003
:01033B00229F
:030033000207FCC5
:0407FC0053D8EF32AD
:100BCC0090E60174E0F000000090E6007410F00074
:100BDC00000090E60B7403F000000090E61274E045
:100BEC00F000000090E61474A0F000000090E60401
:100BFC007480F00000007402F00000007406F00035
:100C0C000000E4F000000090E6497486F00000005B
:100C1C00F0000000F0000000F0000000E490E61886
:100C2C00F000000090E61AF000000090E68DF01243
:030C3C000F032281
:0D0F030043B2014380017F017E00120E17F2
:010F100022BE
:100ACF0090E6497486F0000000F0000000F000008E
:100ADF0000F000000090E601E054FCF000000090F0
:100AEF00E600E04410F0000000E054F7F0000000D2
:100AFF00E490E618F000000090E61AF000000043C2
:100B0F00B20253B2F753B3BF43B30243B50243B379
:100B1F00014380025390FD43B0025390FE5380FD7A
:100B2F007F01FE120E174380027F017E00120E1707
:100B3F0090E6497486F0000000F0000000F000001D
:060B4F0000F0000000228E
:040C3F008E188F1963
:100C43007D0C7C00E519240BFFE43518FED3ED9FE2
:100C5300EE6480F8EC648098504074002DF5827443
:100C6300F83CF583E025E0F51BE433F51A7B0153EB
:100C730090FEC374089BFFE51BAE1AA80708800605
:100C8300CEA2E713CE13D8F85402F5904390010B8C
:0D0C9300BB09DC0DBD00010C80AA5390FED2
:010CA0002231
:0F0EF400E5905408FF131313541F90E7CCF0221E
:070F420090E7CC7403F022DC
:1008B80090E783E014601414601E2402702590E60B
:1008C80000E04410F0E054F7F0801890E600E0549F
:1008D800EFF0E04408F0800B90E600E054EFF0E021
:1008E80054F7F090E7827401F090E600E04402F0DB
:0808F8002290E7C174FFF02219
:100EBE0090E782E01460070470075380FD22120F42
:020ECE000322FD
:1005E4008E188F1990E782E0B4120040030206CE01
:1005F4009005FBF828287302063102063A020643E6
:1006040002064C02065502065E02066702067002E6
:10061400067902068202068B02069402069D0206F1
:10062400A60206AD0206B40206BD0206C690E601A5
:10063400E090E7CCF02290E600E090E7CCF0229046
:10064400E610E090E7CCF02290E611E090E7CCF0E1
:100654002290E612E090E7CCF02290E614E090E7D6
:10066400CCF02290E618E090E7CCF02290E61AE075
:1006740090E7CCF02290E6A0E090E7CCF02290E660
:10068400A1E090E7CCF02290E6A2E090E7CCF02243
:1006940090E6A3E090E7CCF02290E6A5E090E7CCCA
:1006A400F02290E7CCE5AAF02290E7CCE5BAF0225C
:1006B40090E678E090E7CCF02290E679E090E7CC01
:0B06C400F02290E67AE090E7CCF022F4
:10099C0090E782E0120D3509CB0009D40109DD0284
:1009AC0009E60309EF0409F8050A01060A0A070A11
:1009BC0013090A1C0F0A25100A2E1100000A369082
:1009CC00E7CCE090E601F02290E7CCE090E600F076
:1009DC002290E7CCE090E610F02290E7CCE090E695
:1009EC0011F02290E7CCE090E612F02290E7CCE0F8
:1009FC0090E614F02290E7CCE090E618F02290E715
:100A0C00CCE090E61AF02290E7CCE090E604F022DD
:100A1C0090E7CCE090E678F02290E7CCE090E67995
:0B0A2C00F02290E7CCE090E67AF02288
:100A370090E60174E3F000000090E6007410F00007
:100A4700000090E60B7403F000000090E61274E0DB
:100A5700F000000090E61474A0F000000090E60497
:100A67007480F00000007402F00000007406F000CB
:100A77000000E4F000000090E6497486F0000000F2
:100A8700F0000000F0000000F000000090E618748D
:100A970008F000000090E61A7410F000000090E6DD
:100AA7000274ACF000000090E6097403F000000047
:100AB70090E62014F0000000E490E621F00000002A
:080AC70043AF0190E68DF0221F
:1007930090E6047480F0000000E490E618F0000096
:1007A3000090E61AF000000090E6047402F00000E6
:1007B300007406F000000090E6497486F000000023
:1007C300F0000000F0000000F0000000E490E604F8
:1007D300F000000090E6187408F000000090E61A9C
:1007E3007410F000000090E60274ACF0000000907A
:0907F300E6097403F00000002285
:1006CF0090E784E0FF7E0070027F0190E6787480EF
:1006DF00F090E67974A2F090E678E030E0F990E6D9
:1006EF0078E030E1F990E783E090E679F090E678F2
:1006FF00E030E0F990E678E030E1F990E782E090C1
:10070F00E679F090E678E030E0F990E678E030E1D5
:10071F00F9E4FDFCC3ED9FEE6480F8EC6480985023
:10072F005D90E6787480F090E67974A3F090E678A7
:10073F00E030E0F990E678E030E1F990E678742067
:10074F00F090E679E0FB74CC2DF58274E73CF583ED
:10075F00EBF090E678E030E0F990E6787440F090B6
:10076F00E679E0FB74CC2DF58274E73CF583EBF072
:10077F0090E678E020E6F90DBD00010C8096E4903C
:03078F00E678F019
:010792002244
:100B550090E784E0FF7E0070027F0190E678748064
:100B6500F090E67974A2F090E678E030E0F990E74D
:100B750083E090E679F090E678E030E0F990E7825E
:100B8500E090E679F090E678E030E0F9E4FDFCC32A
:100B9500ED9FEE6480F8EC648098501D748C2DF503
:100BA5008274E73CF583E090E679F090E678E030F2
:100BB500E0F90DBD00010C80D690E6787440F09008
:060BC500E678E020E6F9ED
:010BCB002207
:070F4900120A37120F032208
:1004A800E5AA20E4047F0180027F003004047E0175
:1004B80080027E00EE5F60410532E5327002053150
:1004C8007FF47E01120C3F90E6497486F00000002C
:1004D800E532B53024E531B52F1FC204120A37E4DE
:1004E800F531F53290E7C0F0A37403F0E4A3F0A36C
:1004F800F0A3F090E68F7440F0E5BA30E10302050E
:10050800E3E5BA20E2407AE779807EE77F8074E706
:10051800F59A7480F59B7AE779C07EE77FC074E727
:10052800F59D74C0F59E90E68DE0FF7E00E4FDFC2D
:10053800C3ED9FEC9E500F90E67BE090E67CF00DBB
:10054800BD00010C80EA90E781E0120D35058101BC
:1005580005AB0205B01005B51105772005BF3005BC
:10056800C43105BA40057C5005CF60000005D212A1
:100578000F4280561208B88051E490F800F090E6D7
:10058800997440F090E783E0FE90E782E07C0024D5
:1005980000F530EC3EF52F120ACFE4F531F532D2F2
:1005A800048027120EF48022120B55801D1206CFEC
:1005B8008018120EBE801312099C800EA204E4FE5D
:1005C80033FF1205E4800312079390E68F7440F01E
:0B05D800000000E490E68DF000000041
:0105E30022F5
:020F5000D322AA
:020F5200D322A8
:020F5400D322A6
:080F320090E6BAE0F534D32289
:100ED00090E740E534F0E490E68AF090E68B04F089
:020EE000D3221B
:080F3A0090E6BAE0F533D32282
:100EE20090E740E533F0E490E68AF090E68B04F078
:020EF200D32209
:020F5600D322A4
:020F5800D322A2
:020F5A00D322A0
:020F5C00D3229E
:100E6200C0E0C083C082D2015391EF90E65D74016D
:080E7200F0D082D083D0E03201
:100E9200C0E0C083C0825391EF90E65D7404F0D04D
:060EA20082D083D0E03293
:100EA800C0E0C083C0825391EF90E65D7402F0D039
:060EB80082D083D0E0327D
:100D5B00C0E0C083C082852925852A268526828509
:100D6B002583A37402F08521278522288528828577
:100D7B002783A37407F05391EF90E65D7410F0D0C6
:060D8B0082D083D0E032AB
:100E7A00C0E0C083C082D2035391EF90E65D74084C
:080E8A00F0D082D083D0E032E9
:100CE700C0E0C083C08290E680E030E72085212500
:100CF700852226852682852583A37402F0852927E8
:100D0700852A28852882852783A37407F05391EFC6
:0D0D170090E65D7420F0D082D083D0E032F1
:010F5E003260
:010F5F00325F
:010F6000325E
:010F6100325D
:010F6200325C
:010F6300325B
:010F6400325A
:010F65003259
:010F66003258
:010F67003257
:010F68003256
:010F69003255
:010F6A003254
:010F6B003253
:010F6C003252
:010F6D003251
:010F6E003250
:010F6F00324F
:010F7000324E
:010F7100324D
:010F7200324C
:010F7300324B
:010F7400324A
:010F75003249
:010F76003248
:010F77003247
:010F78003246
:010F79003245
:010F7A003244
:010F7B003243
:010F7C003242
:010F7D003241
:010F7E003240
:010F7F00323F
:010F8000323E
:010F8100323D
:100900001201000200000040B4045555000001022D
:1009100000010A06000200000040010009022E004A
:1009200001010080320904000004FF0000000705F7
:100930008102000200070501020002000705820291
:100940000002000705060200020009022E00010154
:100950000080320904000004FF00000007050202C5
:100960004000000705040240000007058602400021
:100970000007058802400000040309041003430037
:100980007900700072006500730073000E0345006B
:0C0990005A002D005500530042000000EA
:100DC00090E682E030E004E020E60B90E682E0303E
:100DD000E119E030E71590E680E04401F07F147EF1
:0C0DE00000120CA190E680E054FEF0220E
:100D910030050990E680E0440AF0800790E680E0A3
:100DA1004408F07FDC7E05120CA190E65D74FFF033
:0F0DB10090E65FF05391EF90E680E054F7F02268
:020DEC00A90755
:100DEE00AE2DAF2E8F828E83A3E064037017AD01FC
:100DFE0019ED7001228F828E83E07C002FFDEC3E78
:080E0E00FEAF0580DFE4FEFFEA
:010E160022B9
:100E3D0090E682E044C0F090E681F0438701000027
:040E4D00000000227F
:100CA1008E188F1990E600E054187012E51924018E
:100CB100FFE43518C313F518EF13F519801590E605
:100CC10000E05418FFBF100BE51925E0F519E518F0
:100CD10033F518E5191519AE18700215184E60058F
:060CE100120E5180EE220C
:100E51007400F58690FDA57C05A3E582458370F9B4
:010E6100226E
:03004300020800B0
:03005300020800A0
:10080000020E6200020EA800020E9200020E7A0092
:10081000020D5B00020CE700020F5E00020F5F009A
:10082000020F6000020F6100020F6200020F6300FE
:10083000020F6400020F6500020F6600020F6700DE
:10084000020F6800020F5F00020F6900020F6A00CA
:10085000020F6B00020F6C00020F6D00020F6E00A2
:10086000020F6F00020F5F00020F5F00020F5F00B8
:10087000020F7000020F7100020F7200020F73006E
:10088000020F7400020F7500020F7600020F77004E
:10089000020F7800020F7900020F7A00020F7B002E
:1008A000020F7C00020F7D00020F7E00020F7F000E
:0808B000020F8000020F81001D
:100E1700E4FDFCC3ED9FEE6480F8EC648098501508
:100E2700E4FBFA0BBB00010ABA0FF8BBA0F50DBD36
:050E370000010C80DE4B
:010E3C002293
:03000000020F11DB
:0C0F1100787FE4F6D8FD75813402033CC3
:100D2400EB9FF5F0EA9E42F0E99D42F0E89C45F025
:010D3400229C
:100D3500D083D082F8E4937012740193700DA3A34D
:100D450093F8740193F5828883E473740293686061
:060D5500EFA3A3A380DF61
:00000001FF
